{
	"contracts/Modifier.sol": {
		"Modifier": {
			"abi": [
				{
					"inputs": [],
					"name": "bar",
					"outputs": [],
					"stateMutability": "nonpayable",
					"type": "function"
				},
				{
					"inputs": [
						{
							"internalType": "uint256",
							"name": "Foo",
							"type": "uint256"
						}
					],
					"name": "foo",
					"outputs": [],
					"stateMutability": "nonpayable",
					"type": "function"
				}
			],
			"devdoc": {
				"kind": "dev",
				"methods": {},
				"version": 1
			},
			"evm": {
				"assembly": "    /* \"contracts/Modifier.sol\":115:446  contract Modifier{... */\n  mstore(0x40, 0x80)\n    /* \"contracts/Modifier.sol\":148:150  10 */\n  0x0a\n    /* \"contracts/Modifier.sol\":139:150  uint a = 10 */\n  0x00\n  sstore\n    /* \"contracts/Modifier.sol\":115:446  contract Modifier{... */\n  callvalue\n  dup1\n  iszero\n  tag_1\n  jumpi\n  0x00\n  dup1\n  revert\ntag_1:\n  pop\n  dataSize(sub_0)\n  dup1\n  dataOffset(sub_0)\n  0x00\n  codecopy\n  0x00\n  return\nstop\n\nsub_0: assembly {\n        /* \"contracts/Modifier.sol\":115:446  contract Modifier{... */\n      mstore(0x40, 0x80)\n      callvalue\n      dup1\n      iszero\n      tag_1\n      jumpi\n      0x00\n      dup1\n      revert\n    tag_1:\n      pop\n      jumpi(tag_2, lt(calldatasize, 0x04))\n      shr(0xe0, calldataload(0x00))\n      dup1\n      0x2fbebd38\n      eq\n      tag_3\n      jumpi\n      dup1\n      0xfebb0f7e\n      eq\n      tag_4\n      jumpi\n    tag_2:\n      0x00\n      dup1\n      revert\n        /* \"contracts/Modifier.sol\":159:225  function foo(uint Foo) public CheckA(Foo) {... */\n    tag_3:\n      tag_5\n      0x04\n      dup1\n      calldatasize\n      sub\n      dup2\n      add\n      swap1\n      tag_6\n      swap2\n      swap1\n      tag_7\n      jump\t// in\n    tag_6:\n      tag_8\n      jump\t// in\n    tag_5:\n      stop\n        /* \"contracts/Modifier.sol\":233:291  function bar() public CheckA(10) CheckB {... */\n    tag_4:\n      tag_9\n      tag_10\n      jump\t// in\n    tag_9:\n      stop\n        /* \"contracts/Modifier.sol\":159:225  function foo(uint Foo) public CheckA(Foo) {... */\n    tag_8:\n        /* \"contracts/Modifier.sol\":196:199  Foo */\n      dup1\n        /* \"contracts/Modifier.sol\":350:351  8 */\n      0x08\n        /* \"contracts/Modifier.sol\":345:346  a */\n      sload(0x00)\n        /* \"contracts/Modifier.sol\":345:351  a == 8 */\n      eq\n        /* \"contracts/Modifier.sol\":337:376  require(a == 8, \"a need to be equal 8\") */\n      tag_12\n      jumpi\n      mload(0x40)\n      0x08c379a000000000000000000000000000000000000000000000000000000000\n      dup2\n      mstore\n      0x04\n      add\n      tag_13\n      swap1\n      tag_14\n      jump\t// in\n    tag_13:\n      mload(0x40)\n      dup1\n      swap2\n      sub\n      swap1\n      revert\n    tag_12:\n        /* \"contracts/Modifier.sol\":216:217  5 */\n      0x05\n        /* \"contracts/Modifier.sol\":212:213  a */\n      0x00\n        /* \"contracts/Modifier.sol\":212:217  a = 5 */\n      dup2\n      swap1\n      sstore\n      pop\n        /* \"contracts/Modifier.sol\":159:225  function foo(uint Foo) public CheckA(Foo) {... */\n      pop\n      pop\n      jump\t// out\n        /* \"contracts/Modifier.sol\":233:291  function bar() public CheckA(10) CheckB {... */\n    tag_10:\n        /* \"contracts/Modifier.sol\":262:264  10 */\n      0x0a\n        /* \"contracts/Modifier.sol\":350:351  8 */\n      0x08\n        /* \"contracts/Modifier.sol\":345:346  a */\n      sload(0x00)\n        /* \"contracts/Modifier.sol\":345:351  a == 8 */\n      eq\n        /* \"contracts/Modifier.sol\":337:376  require(a == 8, \"a need to be equal 8\") */\n      tag_17\n      jumpi\n      mload(0x40)\n      0x08c379a000000000000000000000000000000000000000000000000000000000\n      dup2\n      mstore\n      0x04\n      add\n      tag_18\n      swap1\n      tag_14\n      jump\t// in\n    tag_18:\n      mload(0x40)\n      dup1\n      swap2\n      sub\n      swap1\n      revert\n    tag_17:\n        /* \"contracts/Modifier.sol\":233:291  function bar() public CheckA(10) CheckB {... */\n      pop\n      jump\t// out\n        /* \"#utility.yul\":88:205   */\n    tag_22:\n        /* \"#utility.yul\":197:198   */\n      0x00\n        /* \"#utility.yul\":194:195   */\n      dup1\n        /* \"#utility.yul\":187:199   */\n      revert\n        /* \"#utility.yul\":334:411   */\n    tag_24:\n        /* \"#utility.yul\":371:378   */\n      0x00\n        /* \"#utility.yul\":400:405   */\n      dup2\n        /* \"#utility.yul\":389:405   */\n      swap1\n      pop\n        /* \"#utility.yul\":334:411   */\n      swap2\n      swap1\n      pop\n      jump\t// out\n        /* \"#utility.yul\":417:539   */\n    tag_25:\n        /* \"#utility.yul\":490:514   */\n      tag_36\n        /* \"#utility.yul\":508:513   */\n      dup2\n        /* \"#utility.yul\":490:514   */\n      tag_24\n      jump\t// in\n    tag_36:\n        /* \"#utility.yul\":483:488   */\n      dup2\n        /* \"#utility.yul\":480:515   */\n      eq\n        /* \"#utility.yul\":470:533   */\n      tag_37\n      jumpi\n        /* \"#utility.yul\":529:530   */\n      0x00\n        /* \"#utility.yul\":526:527   */\n      dup1\n        /* \"#utility.yul\":519:531   */\n      revert\n        /* \"#utility.yul\":470:533   */\n    tag_37:\n        /* \"#utility.yul\":417:539   */\n      pop\n      jump\t// out\n        /* \"#utility.yul\":545:684   */\n    tag_26:\n        /* \"#utility.yul\":591:596   */\n      0x00\n        /* \"#utility.yul\":629:635   */\n      dup2\n        /* \"#utility.yul\":616:636   */\n      calldataload\n        /* \"#utility.yul\":607:636   */\n      swap1\n      pop\n        /* \"#utility.yul\":645:678   */\n      tag_39\n        /* \"#utility.yul\":672:677   */\n      dup2\n        /* \"#utility.yul\":645:678   */\n      tag_25\n      jump\t// in\n    tag_39:\n        /* \"#utility.yul\":545:684   */\n      swap3\n      swap2\n      pop\n      pop\n      jump\t// out\n        /* \"#utility.yul\":690:1019   */\n    tag_7:\n        /* \"#utility.yul\":749:755   */\n      0x00\n        /* \"#utility.yul\":798:800   */\n      0x20\n        /* \"#utility.yul\":786:795   */\n      dup3\n        /* \"#utility.yul\":777:784   */\n      dup5\n        /* \"#utility.yul\":773:796   */\n      sub\n        /* \"#utility.yul\":769:801   */\n      slt\n        /* \"#utility.yul\":766:885   */\n      iszero\n      tag_41\n      jumpi\n        /* \"#utility.yul\":804:883   */\n      tag_42\n      tag_22\n      jump\t// in\n    tag_42:\n        /* \"#utility.yul\":766:885   */\n    tag_41:\n        /* \"#utility.yul\":924:925   */\n      0x00\n        /* \"#utility.yul\":949:1002   */\n      tag_43\n        /* \"#utility.yul\":994:1001   */\n      dup5\n        /* \"#utility.yul\":985:991   */\n      dup3\n        /* \"#utility.yul\":974:983   */\n      dup6\n        /* \"#utility.yul\":970:992   */\n      add\n        /* \"#utility.yul\":949:1002   */\n      tag_26\n      jump\t// in\n    tag_43:\n        /* \"#utility.yul\":939:1002   */\n      swap2\n      pop\n        /* \"#utility.yul\":895:1012   */\n      pop\n        /* \"#utility.yul\":690:1019   */\n      swap3\n      swap2\n      pop\n      pop\n      jump\t// out\n        /* \"#utility.yul\":1025:1194   */\n    tag_27:\n        /* \"#utility.yul\":1109:1120   */\n      0x00\n        /* \"#utility.yul\":1143:1149   */\n      dup3\n        /* \"#utility.yul\":1138:1141   */\n      dup3\n        /* \"#utility.yul\":1131:1150   */\n      mstore\n        /* \"#utility.yul\":1183:1187   */\n      0x20\n        /* \"#utility.yul\":1178:1181   */\n      dup3\n        /* \"#utility.yul\":1174:1188   */\n      add\n        /* \"#utility.yul\":1159:1188   */\n      swap1\n      pop\n        /* \"#utility.yul\":1025:1194   */\n      swap3\n      swap2\n      pop\n      pop\n      jump\t// out\n        /* \"#utility.yul\":1200:1370   */\n    tag_28:\n        /* \"#utility.yul\":1340:1362   */\n      0x61206e65656420746f20626520657175616c2038000000000000000000000000\n        /* \"#utility.yul\":1336:1337   */\n      0x00\n        /* \"#utility.yul\":1328:1334   */\n      dup3\n        /* \"#utility.yul\":1324:1338   */\n      add\n        /* \"#utility.yul\":1317:1363   */\n      mstore\n        /* \"#utility.yul\":1200:1370   */\n      pop\n      jump\t// out\n        /* \"#utility.yul\":1376:1742   */\n    tag_29:\n        /* \"#utility.yul\":1518:1521   */\n      0x00\n        /* \"#utility.yul\":1539:1606   */\n      tag_47\n        /* \"#utility.yul\":1603:1605   */\n      0x14\n        /* \"#utility.yul\":1598:1601   */\n      dup4\n        /* \"#utility.yul\":1539:1606   */\n      tag_27\n      jump\t// in\n    tag_47:\n        /* \"#utility.yul\":1532:1606   */\n      swap2\n      pop\n        /* \"#utility.yul\":1615:1708   */\n      tag_48\n        /* \"#utility.yul\":1704:1707   */\n      dup3\n        /* \"#utility.yul\":1615:1708   */\n      tag_28\n      jump\t// in\n    tag_48:\n        /* \"#utility.yul\":1733:1735   */\n      0x20\n        /* \"#utility.yul\":1728:1731   */\n      dup3\n        /* \"#utility.yul\":1724:1736   */\n      add\n        /* \"#utility.yul\":1717:1736   */\n      swap1\n      pop\n        /* \"#utility.yul\":1376:1742   */\n      swap2\n      swap1\n      pop\n      jump\t// out\n        /* \"#utility.yul\":1748:2167   */\n    tag_14:\n        /* \"#utility.yul\":1914:1918   */\n      0x00\n        /* \"#utility.yul\":1952:1954   */\n      0x20\n        /* \"#utility.yul\":1941:1950   */\n      dup3\n        /* \"#utility.yul\":1937:1955   */\n      add\n        /* \"#utility.yul\":1929:1955   */\n      swap1\n      pop\n        /* \"#utility.yul\":2001:2010   */\n      dup2\n        /* \"#utility.yul\":1995:1999   */\n      dup2\n        /* \"#utility.yul\":1991:2011   */\n      sub\n        /* \"#utility.yul\":1987:1988   */\n      0x00\n        /* \"#utility.yul\":1976:1985   */\n      dup4\n        /* \"#utility.yul\":1972:1989   */\n      add\n        /* \"#utility.yul\":1965:2012   */\n      mstore\n        /* \"#utility.yul\":2029:2160   */\n      tag_50\n        /* \"#utility.yul\":2155:2159   */\n      dup2\n        /* \"#utility.yul\":2029:2160   */\n      tag_29\n      jump\t// in\n    tag_50:\n        /* \"#utility.yul\":2021:2160   */\n      swap1\n      pop\n        /* \"#utility.yul\":1748:2167   */\n      swap2\n      swap1\n      pop\n      jump\t// out\n\n    auxdata: 0xa2646970667358221220a70a1b3206a3142217c241ad3453939c3a29e84a86f3917b4662470dc6d7358164736f6c63430008110033\n}\n",
				"bytecode": {
					"linkReferences": {},
					"object": "6080604052600a60005534801561001557600080fd5b50610218806100256000396000f3fe608060405234801561001057600080fd5b50600436106100365760003560e01c80632fbebd381461003b578063febb0f7e14610057575b600080fd5b61005560048036038101906100509190610138565b610061565b005b61005f6100b3565b005b806008600054146100a7576040517f08c379a000000000000000000000000000000000000000000000000000000000815260040161009e906101c2565b60405180910390fd5b60056000819055505050565b600a6008600054146100fa576040517f08c379a00000000000000000000000000000000000000000000000000000000081526004016100f1906101c2565b60405180910390fd5b50565b600080fd5b6000819050919050565b61011581610102565b811461012057600080fd5b50565b6000813590506101328161010c565b92915050565b60006020828403121561014e5761014d6100fd565b5b600061015c84828501610123565b91505092915050565b600082825260208201905092915050565b7f61206e65656420746f20626520657175616c2038000000000000000000000000600082015250565b60006101ac601483610165565b91506101b782610176565b602082019050919050565b600060208201905081810360008301526101db8161019f565b905091905056fea2646970667358221220a70a1b3206a3142217c241ad3453939c3a29e84a86f3917b4662470dc6d7358164736f6c63430008110033",
					"opcodes": "PUSH1 0x80 PUSH1 0x40 MSTORE PUSH1 0xA PUSH1 0x0 SSTORE CALLVALUE DUP1 ISZERO PUSH2 0x15 JUMPI PUSH1 0x0 DUP1 REVERT JUMPDEST POP PUSH2 0x218 DUP1 PUSH2 0x25 PUSH1 0x0 CODECOPY PUSH1 0x0 RETURN INVALID PUSH1 0x80 PUSH1 0x40 MSTORE CALLVALUE DUP1 ISZERO PUSH2 0x10 JUMPI PUSH1 0x0 DUP1 REVERT JUMPDEST POP PUSH1 0x4 CALLDATASIZE LT PUSH2 0x36 JUMPI PUSH1 0x0 CALLDATALOAD PUSH1 0xE0 SHR DUP1 PUSH4 0x2FBEBD38 EQ PUSH2 0x3B JUMPI DUP1 PUSH4 0xFEBB0F7E EQ PUSH2 0x57 JUMPI JUMPDEST PUSH1 0x0 DUP1 REVERT JUMPDEST PUSH2 0x55 PUSH1 0x4 DUP1 CALLDATASIZE SUB DUP2 ADD SWAP1 PUSH2 0x50 SWAP2 SWAP1 PUSH2 0x138 JUMP JUMPDEST PUSH2 0x61 JUMP JUMPDEST STOP JUMPDEST PUSH2 0x5F PUSH2 0xB3 JUMP JUMPDEST STOP JUMPDEST DUP1 PUSH1 0x8 PUSH1 0x0 SLOAD EQ PUSH2 0xA7 JUMPI PUSH1 0x40 MLOAD PUSH32 0x8C379A000000000000000000000000000000000000000000000000000000000 DUP2 MSTORE PUSH1 0x4 ADD PUSH2 0x9E SWAP1 PUSH2 0x1C2 JUMP JUMPDEST PUSH1 0x40 MLOAD DUP1 SWAP2 SUB SWAP1 REVERT JUMPDEST PUSH1 0x5 PUSH1 0x0 DUP2 SWAP1 SSTORE POP POP POP JUMP JUMPDEST PUSH1 0xA PUSH1 0x8 PUSH1 0x0 SLOAD EQ PUSH2 0xFA JUMPI PUSH1 0x40 MLOAD PUSH32 0x8C379A000000000000000000000000000000000000000000000000000000000 DUP2 MSTORE PUSH1 0x4 ADD PUSH2 0xF1 SWAP1 PUSH2 0x1C2 JUMP JUMPDEST PUSH1 0x40 MLOAD DUP1 SWAP2 SUB SWAP1 REVERT JUMPDEST POP JUMP JUMPDEST PUSH1 0x0 DUP1 REVERT JUMPDEST PUSH1 0x0 DUP2 SWAP1 POP SWAP2 SWAP1 POP JUMP JUMPDEST PUSH2 0x115 DUP2 PUSH2 0x102 JUMP JUMPDEST DUP2 EQ PUSH2 0x120 JUMPI PUSH1 0x0 DUP1 REVERT JUMPDEST POP JUMP JUMPDEST PUSH1 0x0 DUP2 CALLDATALOAD SWAP1 POP PUSH2 0x132 DUP2 PUSH2 0x10C JUMP JUMPDEST SWAP3 SWAP2 POP POP JUMP JUMPDEST PUSH1 0x0 PUSH1 0x20 DUP3 DUP5 SUB SLT ISZERO PUSH2 0x14E JUMPI PUSH2 0x14D PUSH2 0xFD JUMP JUMPDEST JUMPDEST PUSH1 0x0 PUSH2 0x15C DUP5 DUP3 DUP6 ADD PUSH2 0x123 JUMP JUMPDEST SWAP2 POP POP SWAP3 SWAP2 POP POP JUMP JUMPDEST PUSH1 0x0 DUP3 DUP3 MSTORE PUSH1 0x20 DUP3 ADD SWAP1 POP SWAP3 SWAP2 POP POP JUMP JUMPDEST PUSH32 0x61206E65656420746F20626520657175616C2038000000000000000000000000 PUSH1 0x0 DUP3 ADD MSTORE POP JUMP JUMPDEST PUSH1 0x0 PUSH2 0x1AC PUSH1 0x14 DUP4 PUSH2 0x165 JUMP JUMPDEST SWAP2 POP PUSH2 0x1B7 DUP3 PUSH2 0x176 JUMP JUMPDEST PUSH1 0x20 DUP3 ADD SWAP1 POP SWAP2 SWAP1 POP JUMP JUMPDEST PUSH1 0x0 PUSH1 0x20 DUP3 ADD SWAP1 POP DUP2 DUP2 SUB PUSH1 0x0 DUP4 ADD MSTORE PUSH2 0x1DB DUP2 PUSH2 0x19F JUMP JUMPDEST SWAP1 POP SWAP2 SWAP1 POP JUMP INVALID LOG2 PUSH5 0x6970667358 0x22 SLT KECCAK256 0xA7 EXP SHL ORIGIN MOD LOG3 EQ 0x22 OR 0xC2 COINBASE 0xAD CALLVALUE MSTORE8 SWAP4 SWAP13 GASPRICE 0x29 0xE8 0x4A DUP7 RETURN SWAP2 PUSH28 0x4662470DC6D7358164736F6C63430008110033000000000000000000 "
				},
				"gasEstimates": {
					"creation": {
						"codeDepositCost": "107200",
						"executionCost": "22259",
						"totalCost": "129459"
					},
					"external": {
						"bar()": "2559",
						"foo(uint256)": "24626"
					}
				},
				"methodIdentifiers": {
					"bar()": "febb0f7e",
					"foo(uint256)": "2fbebd38"
				}
			},
			"storageLayout": {
				"storage": [
					{
						"astId": 4,
						"contract": "contracts/Modifier.sol:Modifier",
						"label": "a",
						"offset": 0,
						"slot": "0",
						"type": "t_uint256"
					}
				],
				"types": {
					"t_uint256": {
						"encoding": "inplace",
						"label": "uint256",
						"numberOfBytes": "32"
					}
				}
			},
			"userdoc": {
				"kind": "user",
				"methods": {},
				"version": 1
			}
		}
	}
}