{
	"contracts/Send.sol": {
		"Send": {
			"abi": [
				{
					"inputs": [],
					"name": "BuySth",
					"outputs": [],
					"stateMutability": "payable",
					"type": "function"
				},
				{
					"inputs": [
						{
							"internalType": "address payable",
							"name": "to",
							"type": "address"
						},
						{
							"internalType": "uint256",
							"name": "amount",
							"type": "uint256"
						}
					],
					"name": "SendEther",
					"outputs": [],
					"stateMutability": "nonpayable",
					"type": "function"
				}
			],
			"devdoc": {
				"kind": "dev",
				"methods": {},
				"version": 1
			},
			"evm": {
				"assembly": "    /* \"contracts/Send.sol\":61:244  contract Send{\r... */\n  mstore(0x40, 0x80)\n  callvalue\n  dup1\n  iszero\n  tag_1\n  jumpi\n  0x00\n  dup1\n  revert\ntag_1:\n  pop\n  dataSize(sub_0)\n  dup1\n  dataOffset(sub_0)\n  0x00\n  codecopy\n  0x00\n  return\nstop\n\nsub_0: assembly {\n        /* \"contracts/Send.sol\":61:244  contract Send{\r... */\n      mstore(0x40, 0x80)\n      jumpi(tag_1, lt(calldatasize, 0x04))\n      shr(0xe0, calldataload(0x00))\n      dup1\n      0x5cf9c3dc\n      eq\n      tag_2\n      jumpi\n      dup1\n      0xc8de1c1c\n      eq\n      tag_3\n      jumpi\n    tag_1:\n      0x00\n      dup1\n      revert\n        /* \"contracts/Send.sol\":81:179  function SendEther(address payable to, uint amount) external{\r... */\n    tag_2:\n      callvalue\n      dup1\n      iszero\n      tag_4\n      jumpi\n      0x00\n      dup1\n      revert\n    tag_4:\n      pop\n      tag_5\n      0x04\n      dup1\n      calldatasize\n      sub\n      dup2\n      add\n      swap1\n      tag_6\n      swap2\n      swap1\n      tag_7\n      jump\t// in\n    tag_6:\n      tag_8\n      jump\t// in\n    tag_5:\n      stop\n        /* \"contracts/Send.sol\":187:239  function BuySth() external payable{\r... */\n    tag_3:\n      tag_9\n      tag_10\n      jump\t// in\n    tag_9:\n      stop\n        /* \"contracts/Send.sol\":81:179  function SendEther(address payable to, uint amount) external{\r... */\n    tag_8:\n        /* \"contracts/Send.sol\":152:154  to */\n      dup2\n        /* \"contracts/Send.sol\":152:163  to.transfer */\n      0xffffffffffffffffffffffffffffffffffffffff\n      and\n        /* \"contracts/Send.sol\":152:171  to.transfer(amount) */\n      0x08fc\n        /* \"contracts/Send.sol\":164:170  amount */\n      dup3\n        /* \"contracts/Send.sol\":152:171  to.transfer(amount) */\n      swap1\n      dup2\n      iszero\n      mul\n      swap1\n      mload(0x40)\n      0x00\n      mload(0x40)\n      dup1\n      dup4\n      sub\n      dup2\n      dup6\n      dup9\n      dup9\n      call\n      swap4\n      pop\n      pop\n      pop\n      pop\n      iszero\n      dup1\n      iszero\n      tag_13\n      jumpi\n      returndatasize\n      0x00\n      dup1\n      returndatacopy\n      revert(0x00, returndatasize)\n    tag_13:\n      pop\n        /* \"contracts/Send.sol\":81:179  function SendEther(address payable to, uint amount) external{\r... */\n      pop\n      pop\n      jump\t// out\n        /* \"contracts/Send.sol\":187:239  function BuySth() external payable{\r... */\n    tag_10:\n      jump\t// out\n        /* \"#utility.yul\":7:162   */\n    tag_16:\n      0x00\n        /* \"#utility.yul\":99:105   */\n      dup2\n        /* \"#utility.yul\":86:106   */\n      calldataload\n        /* \"#utility.yul\":77:106   */\n      swap1\n      pop\n        /* \"#utility.yul\":115:156   */\n      tag_18\n        /* \"#utility.yul\":150:155   */\n      dup2\n        /* \"#utility.yul\":115:156   */\n      tag_19\n      jump\t// in\n    tag_18:\n        /* \"#utility.yul\":67:162   */\n      swap3\n      swap2\n      pop\n      pop\n      jump\t// out\n        /* \"#utility.yul\":168:307   */\n    tag_20:\n      0x00\n        /* \"#utility.yul\":252:258   */\n      dup2\n        /* \"#utility.yul\":239:259   */\n      calldataload\n        /* \"#utility.yul\":230:259   */\n      swap1\n      pop\n        /* \"#utility.yul\":268:301   */\n      tag_22\n        /* \"#utility.yul\":295:300   */\n      dup2\n        /* \"#utility.yul\":268:301   */\n      tag_23\n      jump\t// in\n    tag_22:\n        /* \"#utility.yul\":220:307   */\n      swap3\n      swap2\n      pop\n      pop\n      jump\t// out\n        /* \"#utility.yul\":313:736   */\n    tag_7:\n      0x00\n      dup1\n        /* \"#utility.yul\":446:448   */\n      0x40\n        /* \"#utility.yul\":434:443   */\n      dup4\n        /* \"#utility.yul\":425:432   */\n      dup6\n        /* \"#utility.yul\":421:444   */\n      sub\n        /* \"#utility.yul\":417:449   */\n      slt\n        /* \"#utility.yul\":414:416   */\n      iszero\n      tag_25\n      jumpi\n        /* \"#utility.yul\":462:463   */\n      0x00\n        /* \"#utility.yul\":459:460   */\n      dup1\n        /* \"#utility.yul\":452:464   */\n      revert\n        /* \"#utility.yul\":414:416   */\n    tag_25:\n        /* \"#utility.yul\":505:506   */\n      0x00\n        /* \"#utility.yul\":530:591   */\n      tag_26\n        /* \"#utility.yul\":583:590   */\n      dup6\n        /* \"#utility.yul\":574:580   */\n      dup3\n        /* \"#utility.yul\":563:572   */\n      dup7\n        /* \"#utility.yul\":559:581   */\n      add\n        /* \"#utility.yul\":530:591   */\n      tag_16\n      jump\t// in\n    tag_26:\n        /* \"#utility.yul\":520:591   */\n      swap3\n      pop\n        /* \"#utility.yul\":476:601   */\n      pop\n        /* \"#utility.yul\":640:642   */\n      0x20\n        /* \"#utility.yul\":666:719   */\n      tag_27\n        /* \"#utility.yul\":711:718   */\n      dup6\n        /* \"#utility.yul\":702:708   */\n      dup3\n        /* \"#utility.yul\":691:700   */\n      dup7\n        /* \"#utility.yul\":687:709   */\n      add\n        /* \"#utility.yul\":666:719   */\n      tag_20\n      jump\t// in\n    tag_27:\n        /* \"#utility.yul\":656:719   */\n      swap2\n      pop\n        /* \"#utility.yul\":611:729   */\n      pop\n        /* \"#utility.yul\":404:736   */\n      swap3\n      pop\n      swap3\n      swap1\n      pop\n      jump\t// out\n        /* \"#utility.yul\":742:846   */\n    tag_28:\n      0x00\n        /* \"#utility.yul\":816:840   */\n      tag_30\n        /* \"#utility.yul\":834:839   */\n      dup3\n        /* \"#utility.yul\":816:840   */\n      tag_31\n      jump\t// in\n    tag_30:\n        /* \"#utility.yul\":805:840   */\n      swap1\n      pop\n        /* \"#utility.yul\":795:846   */\n      swap2\n      swap1\n      pop\n      jump\t// out\n        /* \"#utility.yul\":852:978   */\n    tag_31:\n      0x00\n        /* \"#utility.yul\":929:971   */\n      0xffffffffffffffffffffffffffffffffffffffff\n        /* \"#utility.yul\":922:927   */\n      dup3\n        /* \"#utility.yul\":918:972   */\n      and\n        /* \"#utility.yul\":907:972   */\n      swap1\n      pop\n        /* \"#utility.yul\":897:978   */\n      swap2\n      swap1\n      pop\n      jump\t// out\n        /* \"#utility.yul\":984:1061   */\n    tag_33:\n      0x00\n        /* \"#utility.yul\":1050:1055   */\n      dup2\n        /* \"#utility.yul\":1039:1055   */\n      swap1\n      pop\n        /* \"#utility.yul\":1029:1061   */\n      swap2\n      swap1\n      pop\n      jump\t// out\n        /* \"#utility.yul\":1067:1205   */\n    tag_19:\n        /* \"#utility.yul\":1148:1180   */\n      tag_36\n        /* \"#utility.yul\":1174:1179   */\n      dup2\n        /* \"#utility.yul\":1148:1180   */\n      tag_28\n      jump\t// in\n    tag_36:\n        /* \"#utility.yul\":1141:1146   */\n      dup2\n        /* \"#utility.yul\":1138:1181   */\n      eq\n        /* \"#utility.yul\":1128:1130   */\n      tag_37\n      jumpi\n        /* \"#utility.yul\":1195:1196   */\n      0x00\n        /* \"#utility.yul\":1192:1193   */\n      dup1\n        /* \"#utility.yul\":1185:1197   */\n      revert\n        /* \"#utility.yul\":1128:1130   */\n    tag_37:\n        /* \"#utility.yul\":1118:1205   */\n      pop\n      jump\t// out\n        /* \"#utility.yul\":1211:1333   */\n    tag_23:\n        /* \"#utility.yul\":1284:1308   */\n      tag_39\n        /* \"#utility.yul\":1302:1307   */\n      dup2\n        /* \"#utility.yul\":1284:1308   */\n      tag_33\n      jump\t// in\n    tag_39:\n        /* \"#utility.yul\":1277:1282   */\n      dup2\n        /* \"#utility.yul\":1274:1309   */\n      eq\n        /* \"#utility.yul\":1264:1266   */\n      tag_40\n      jumpi\n        /* \"#utility.yul\":1323:1324   */\n      0x00\n        /* \"#utility.yul\":1320:1321   */\n      dup1\n        /* \"#utility.yul\":1313:1325   */\n      revert\n        /* \"#utility.yul\":1264:1266   */\n    tag_40:\n        /* \"#utility.yul\":1254:1333   */\n      pop\n      jump\t// out\n\n    auxdata: 0xa26469706673582212204a1be88e7f41c16662b1eaa0d7da3f9164d81ff1b0ed2a43c5609366f6056eb064736f6c63430008030033\n}\n",
				"bytecode": {
					"linkReferences": {},
					"object": "608060405234801561001057600080fd5b506101b4806100206000396000f3fe6080604052600436106100295760003560e01c80635cf9c3dc1461002e578063c8de1c1c14610057575b600080fd5b34801561003a57600080fd5b50610055600480360381019061005091906100d8565b610061565b005b61005f6100ac565b005b8173ffffffffffffffffffffffffffffffffffffffff166108fc829081150290604051600060405180830381858888f193505050501580156100a7573d6000803e3d6000fd5b505050565b565b6000813590506100bd81610150565b92915050565b6000813590506100d281610167565b92915050565b600080604083850312156100eb57600080fd5b60006100f9858286016100ae565b925050602061010a858286016100c3565b9150509250929050565b600061011f82610126565b9050919050565b600073ffffffffffffffffffffffffffffffffffffffff82169050919050565b6000819050919050565b61015981610114565b811461016457600080fd5b50565b61017081610146565b811461017b57600080fd5b5056fea26469706673582212204a1be88e7f41c16662b1eaa0d7da3f9164d81ff1b0ed2a43c5609366f6056eb064736f6c63430008030033",
					"opcodes": "PUSH1 0x80 PUSH1 0x40 MSTORE CALLVALUE DUP1 ISZERO PUSH2 0x10 JUMPI PUSH1 0x0 DUP1 REVERT JUMPDEST POP PUSH2 0x1B4 DUP1 PUSH2 0x20 PUSH1 0x0 CODECOPY PUSH1 0x0 RETURN INVALID PUSH1 0x80 PUSH1 0x40 MSTORE PUSH1 0x4 CALLDATASIZE LT PUSH2 0x29 JUMPI PUSH1 0x0 CALLDATALOAD PUSH1 0xE0 SHR DUP1 PUSH4 0x5CF9C3DC EQ PUSH2 0x2E JUMPI DUP1 PUSH4 0xC8DE1C1C EQ PUSH2 0x57 JUMPI JUMPDEST PUSH1 0x0 DUP1 REVERT JUMPDEST CALLVALUE DUP1 ISZERO PUSH2 0x3A JUMPI PUSH1 0x0 DUP1 REVERT JUMPDEST POP PUSH2 0x55 PUSH1 0x4 DUP1 CALLDATASIZE SUB DUP2 ADD SWAP1 PUSH2 0x50 SWAP2 SWAP1 PUSH2 0xD8 JUMP JUMPDEST PUSH2 0x61 JUMP JUMPDEST STOP JUMPDEST PUSH2 0x5F PUSH2 0xAC JUMP JUMPDEST STOP JUMPDEST DUP2 PUSH20 0xFFFFFFFFFFFFFFFFFFFFFFFFFFFFFFFFFFFFFFFF AND PUSH2 0x8FC DUP3 SWAP1 DUP2 ISZERO MUL SWAP1 PUSH1 0x40 MLOAD PUSH1 0x0 PUSH1 0x40 MLOAD DUP1 DUP4 SUB DUP2 DUP6 DUP9 DUP9 CALL SWAP4 POP POP POP POP ISZERO DUP1 ISZERO PUSH2 0xA7 JUMPI RETURNDATASIZE PUSH1 0x0 DUP1 RETURNDATACOPY RETURNDATASIZE PUSH1 0x0 REVERT JUMPDEST POP POP POP JUMP JUMPDEST JUMP JUMPDEST PUSH1 0x0 DUP2 CALLDATALOAD SWAP1 POP PUSH2 0xBD DUP2 PUSH2 0x150 JUMP JUMPDEST SWAP3 SWAP2 POP POP JUMP JUMPDEST PUSH1 0x0 DUP2 CALLDATALOAD SWAP1 POP PUSH2 0xD2 DUP2 PUSH2 0x167 JUMP JUMPDEST SWAP3 SWAP2 POP POP JUMP JUMPDEST PUSH1 0x0 DUP1 PUSH1 0x40 DUP4 DUP6 SUB SLT ISZERO PUSH2 0xEB JUMPI PUSH1 0x0 DUP1 REVERT JUMPDEST PUSH1 0x0 PUSH2 0xF9 DUP6 DUP3 DUP7 ADD PUSH2 0xAE JUMP JUMPDEST SWAP3 POP POP PUSH1 0x20 PUSH2 0x10A DUP6 DUP3 DUP7 ADD PUSH2 0xC3 JUMP JUMPDEST SWAP2 POP POP SWAP3 POP SWAP3 SWAP1 POP JUMP JUMPDEST PUSH1 0x0 PUSH2 0x11F DUP3 PUSH2 0x126 JUMP JUMPDEST SWAP1 POP SWAP2 SWAP1 POP JUMP JUMPDEST PUSH1 0x0 PUSH20 0xFFFFFFFFFFFFFFFFFFFFFFFFFFFFFFFFFFFFFFFF DUP3 AND SWAP1 POP SWAP2 SWAP1 POP JUMP JUMPDEST PUSH1 0x0 DUP2 SWAP1 POP SWAP2 SWAP1 POP JUMP JUMPDEST PUSH2 0x159 DUP2 PUSH2 0x114 JUMP JUMPDEST DUP2 EQ PUSH2 0x164 JUMPI PUSH1 0x0 DUP1 REVERT JUMPDEST POP JUMP JUMPDEST PUSH2 0x170 DUP2 PUSH2 0x146 JUMP JUMPDEST DUP2 EQ PUSH2 0x17B JUMPI PUSH1 0x0 DUP1 REVERT JUMPDEST POP JUMP INVALID LOG2 PUSH5 0x6970667358 0x22 SLT KECCAK256 0x4A SHL 0xE8 DUP15 PUSH32 0x41C16662B1EAA0D7DA3F9164D81FF1B0ED2A43C5609366F6056EB064736F6C63 NUMBER STOP ADDMOD SUB STOP CALLER "
				},
				"gasEstimates": {
					"creation": {
						"codeDepositCost": "87200",
						"executionCost": "135",
						"totalCost": "87335"
					},
					"external": {
						"BuySth()": "120",
						"SendEther(address,uint256)": "infinite"
					}
				},
				"methodIdentifiers": {
					"BuySth()": "c8de1c1c",
					"SendEther(address,uint256)": "5cf9c3dc"
				}
			},
			"storageLayout": {
				"storage": [],
				"types": null
			},
			"userdoc": {
				"kind": "user",
				"methods": {},
				"version": 1
			}
		}
	}
}