{
	"contracts/ContractA.sol": {
		"ContractA": {
			"abi": [
				{
					"inputs": [],
					"stateMutability": "nonpayable",
					"type": "constructor"
				},
				{
					"inputs": [],
					"name": "balance",
					"outputs": [
						{
							"internalType": "uint256",
							"name": "",
							"type": "uint256"
						}
					],
					"stateMutability": "view",
					"type": "function"
				},
				{
					"inputs": [],
					"name": "owner",
					"outputs": [
						{
							"internalType": "address",
							"name": "",
							"type": "address"
						}
					],
					"stateMutability": "view",
					"type": "function"
				},
				{
					"inputs": [],
					"name": "receivesETH",
					"outputs": [],
					"stateMutability": "payable",
					"type": "function"
				},
				{
					"stateMutability": "payable",
					"type": "receive"
				}
			],
			"devdoc": {
				"kind": "dev",
				"methods": {},
				"version": 1
			},
			"evm": {
				"assembly": "    /* \"contracts/ContractA.sol\":109:481  contract ContractA {\r... */\n  mstore(0x40, 0x80)\n    /* \"contracts/ContractA.sol\":193:251  constructor() public {\r... */\n  callvalue\n  dup1\n  iszero\n  tag_1\n  jumpi\n  0x00\n  dup1\n  revert\ntag_1:\n  pop\n    /* \"contracts/ContractA.sol\":233:243  msg.sender */\n  caller\n    /* \"contracts/ContractA.sol\":225:230  owner */\n  0x00\n  dup1\n    /* \"contracts/ContractA.sol\":225:243  owner = msg.sender */\n  0x0100\n  exp\n  dup2\n  sload\n  dup2\n  0xffffffffffffffffffffffffffffffffffffffff\n  mul\n  not\n  and\n  swap1\n  dup4\n  0xffffffffffffffffffffffffffffffffffffffff\n  and\n  mul\n  or\n  swap1\n  sstore\n  pop\n    /* \"contracts/ContractA.sol\":109:481  contract ContractA {\r... */\n  dataSize(sub_0)\n  dup1\n  dataOffset(sub_0)\n  0x00\n  codecopy\n  0x00\n  return\nstop\n\nsub_0: assembly {\n        /* \"contracts/ContractA.sol\":109:481  contract ContractA {\r... */\n      mstore(0x40, 0x80)\n      jumpi(tag_1, lt(calldatasize, 0x04))\n      shr(0xe0, calldataload(0x00))\n      dup1\n      0x24878913\n      eq\n      tag_3\n      jumpi\n      dup1\n      0x8da5cb5b\n      eq\n      tag_4\n      jumpi\n      dup1\n      0xb69ef8a8\n      eq\n      tag_5\n      jumpi\n      jump(tag_2)\n    tag_1:\n      jumpi(tag_2, calldatasize)\n        /* \"contracts/ContractA.sol\":347:356  msg.value */\n      callvalue\n        /* \"contracts/ContractA.sol\":337:344  balance */\n      sload(0x01)\n        /* \"contracts/ContractA.sol\":337:356  balance + msg.value */\n      add\n        /* \"contracts/ContractA.sol\":327:334  balance */\n      0x01\n        /* \"contracts/ContractA.sol\":327:356  balance = balance + msg.value */\n      dup2\n      swap1\n      sstore\n      pop\n        /* \"contracts/ContractA.sol\":109:481  contract ContractA {\r... */\n      stop\n    tag_2:\n      0x00\n      dup1\n      revert\n        /* \"contracts/ContractA.sol\":393:478  function receivesETH() public payable{\r... */\n    tag_3:\n      tag_8\n      tag_9\n      jump\t// in\n    tag_8:\n      stop\n        /* \"contracts/ContractA.sol\":135:155  address public owner */\n    tag_4:\n      callvalue\n      dup1\n      iszero\n      tag_10\n      jumpi\n      0x00\n      dup1\n      revert\n    tag_10:\n      pop\n      tag_11\n      tag_12\n      jump\t// in\n    tag_11:\n      mload(0x40)\n      dup1\n      dup3\n      0xffffffffffffffffffffffffffffffffffffffff\n      and\n      dup2\n      mstore\n      0x20\n      add\n      swap2\n      pop\n      pop\n      mload(0x40)\n      dup1\n      swap2\n      sub\n      swap1\n      return\n        /* \"contracts/ContractA.sol\":162:184  uint256 public balance */\n    tag_5:\n      callvalue\n      dup1\n      iszero\n      tag_13\n      jumpi\n      0x00\n      dup1\n      revert\n    tag_13:\n      pop\n      tag_14\n      tag_15\n      jump\t// in\n    tag_14:\n      mload(0x40)\n      dup1\n      dup3\n      dup2\n      mstore\n      0x20\n      add\n      swap2\n      pop\n      pop\n      mload(0x40)\n      dup1\n      swap2\n      sub\n      swap1\n      return\n        /* \"contracts/ContractA.sol\":393:478  function receivesETH() public payable{\r... */\n    tag_9:\n        /* \"contracts/ContractA.sol\":461:470  msg.value */\n      callvalue\n        /* \"contracts/ContractA.sol\":451:458  balance */\n      sload(0x01)\n        /* \"contracts/ContractA.sol\":451:470  balance + msg.value */\n      add\n        /* \"contracts/ContractA.sol\":441:448  balance */\n      0x01\n        /* \"contracts/ContractA.sol\":441:470  balance = balance + msg.value */\n      dup2\n      swap1\n      sstore\n      pop\n        /* \"contracts/ContractA.sol\":393:478  function receivesETH() public payable{\r... */\n      jump\t// out\n        /* \"contracts/ContractA.sol\":135:155  address public owner */\n    tag_12:\n      0x00\n      dup1\n      sload\n      swap1\n      0x0100\n      exp\n      swap1\n      div\n      0xffffffffffffffffffffffffffffffffffffffff\n      and\n      dup2\n      jump\t// out\n        /* \"contracts/ContractA.sol\":162:184  uint256 public balance */\n    tag_15:\n      sload(0x01)\n      dup2\n      jump\t// out\n\n    auxdata: 0xa264697066735822122083c9c9d9c55cb29406edc080798853aaf1a8005bd297f22f5f264b8d553a6f9e64736f6c634300060c0033\n}\n",
				"bytecode": {
					"linkReferences": {},
					"object": "608060405234801561001057600080fd5b50336000806101000a81548173ffffffffffffffffffffffffffffffffffffffff021916908373ffffffffffffffffffffffffffffffffffffffff160217905550610124806100606000396000f3fe60806040526004361060335760003560e01c8063248789131460495780638da5cb5b146051578063b69ef8a814608f576044565b366044573460015401600181905550005b600080fd5b604f60b7565b005b348015605c57600080fd5b50606360c4565b604051808273ffffffffffffffffffffffffffffffffffffffff16815260200191505060405180910390f35b348015609a57600080fd5b5060a160e8565b6040518082815260200191505060405180910390f35b3460015401600181905550565b60008054906101000a900473ffffffffffffffffffffffffffffffffffffffff1681565b6001548156fea264697066735822122083c9c9d9c55cb29406edc080798853aaf1a8005bd297f22f5f264b8d553a6f9e64736f6c634300060c0033",
					"opcodes": "PUSH1 0x80 PUSH1 0x40 MSTORE CALLVALUE DUP1 ISZERO PUSH2 0x10 JUMPI PUSH1 0x0 DUP1 REVERT JUMPDEST POP CALLER PUSH1 0x0 DUP1 PUSH2 0x100 EXP DUP2 SLOAD DUP2 PUSH20 0xFFFFFFFFFFFFFFFFFFFFFFFFFFFFFFFFFFFFFFFF MUL NOT AND SWAP1 DUP4 PUSH20 0xFFFFFFFFFFFFFFFFFFFFFFFFFFFFFFFFFFFFFFFF AND MUL OR SWAP1 SSTORE POP PUSH2 0x124 DUP1 PUSH2 0x60 PUSH1 0x0 CODECOPY PUSH1 0x0 RETURN INVALID PUSH1 0x80 PUSH1 0x40 MSTORE PUSH1 0x4 CALLDATASIZE LT PUSH1 0x33 JUMPI PUSH1 0x0 CALLDATALOAD PUSH1 0xE0 SHR DUP1 PUSH4 0x24878913 EQ PUSH1 0x49 JUMPI DUP1 PUSH4 0x8DA5CB5B EQ PUSH1 0x51 JUMPI DUP1 PUSH4 0xB69EF8A8 EQ PUSH1 0x8F JUMPI PUSH1 0x44 JUMP JUMPDEST CALLDATASIZE PUSH1 0x44 JUMPI CALLVALUE PUSH1 0x1 SLOAD ADD PUSH1 0x1 DUP2 SWAP1 SSTORE POP STOP JUMPDEST PUSH1 0x0 DUP1 REVERT JUMPDEST PUSH1 0x4F PUSH1 0xB7 JUMP JUMPDEST STOP JUMPDEST CALLVALUE DUP1 ISZERO PUSH1 0x5C JUMPI PUSH1 0x0 DUP1 REVERT JUMPDEST POP PUSH1 0x63 PUSH1 0xC4 JUMP JUMPDEST PUSH1 0x40 MLOAD DUP1 DUP3 PUSH20 0xFFFFFFFFFFFFFFFFFFFFFFFFFFFFFFFFFFFFFFFF AND DUP2 MSTORE PUSH1 0x20 ADD SWAP2 POP POP PUSH1 0x40 MLOAD DUP1 SWAP2 SUB SWAP1 RETURN JUMPDEST CALLVALUE DUP1 ISZERO PUSH1 0x9A JUMPI PUSH1 0x0 DUP1 REVERT JUMPDEST POP PUSH1 0xA1 PUSH1 0xE8 JUMP JUMPDEST PUSH1 0x40 MLOAD DUP1 DUP3 DUP2 MSTORE PUSH1 0x20 ADD SWAP2 POP POP PUSH1 0x40 MLOAD DUP1 SWAP2 SUB SWAP1 RETURN JUMPDEST CALLVALUE PUSH1 0x1 SLOAD ADD PUSH1 0x1 DUP2 SWAP1 SSTORE POP JUMP JUMPDEST PUSH1 0x0 DUP1 SLOAD SWAP1 PUSH2 0x100 EXP SWAP1 DIV PUSH20 0xFFFFFFFFFFFFFFFFFFFFFFFFFFFFFFFFFFFFFFFF AND DUP2 JUMP JUMPDEST PUSH1 0x1 SLOAD DUP2 JUMP INVALID LOG2 PUSH5 0x6970667358 0x22 SLT KECCAK256 DUP4 0xC9 0xC9 0xD9 0xC5 0x5C 0xB2 SWAP5 MOD 0xED 0xC0 DUP1 PUSH26 0x8853AAF1A8005BD297F22F5F264B8D553A6F9E64736F6C634300 MOD 0xC STOP CALLER "
				},
				"gasEstimates": {
					"creation": {
						"codeDepositCost": "58400",
						"executionCost": "20977",
						"totalCost": "79377"
					},
					"external": {
						"balance()": "1027",
						"owner()": "1044",
						"receivesETH()": "20917"
					}
				},
				"methodIdentifiers": {
					"balance()": "b69ef8a8",
					"owner()": "8da5cb5b",
					"receivesETH()": "24878913"
				}
			},
			"storageLayout": {
				"storage": [
					{
						"astId": 3,
						"contract": "contracts/ContractA.sol:ContractA",
						"label": "owner",
						"offset": 0,
						"slot": "0",
						"type": "t_address"
					},
					{
						"astId": 5,
						"contract": "contracts/ContractA.sol:ContractA",
						"label": "balance",
						"offset": 0,
						"slot": "1",
						"type": "t_uint256"
					}
				],
				"types": {
					"t_address": {
						"encoding": "inplace",
						"label": "address",
						"numberOfBytes": "20"
					},
					"t_uint256": {
						"encoding": "inplace",
						"label": "uint256",
						"numberOfBytes": "32"
					}
				}
			},
			"userdoc": {
				"kind": "user",
				"methods": {},
				"version": 1
			}
		}
	}
}