{
	"contracts/Handle.sol": {
		"Handle": {
			"abi": [
				{
					"inputs": [],
					"name": "a",
					"outputs": [
						{
							"internalType": "uint256",
							"name": "",
							"type": "uint256"
						}
					],
					"stateMutability": "view",
					"type": "function"
				},
				{
					"inputs": [],
					"name": "foo",
					"outputs": [],
					"stateMutability": "nonpayable",
					"type": "function"
				}
			],
			"devdoc": {
				"kind": "dev",
				"methods": {},
				"version": 1
			},
			"evm": {
				"assembly": "    /* \"contracts/Handle.sol\":122:458  contract Handle{... */\n  mstore(0x40, 0x80)\n    /* \"contracts/Handle.sol\":160:162  10 */\n  0x0a\n    /* \"contracts/Handle.sol\":144:162  uint public a = 10 */\n  0x00\n  sstore\n    /* \"contracts/Handle.sol\":122:458  contract Handle{... */\n  callvalue\n  dup1\n  iszero\n  tag_1\n  jumpi\n  0x00\n  dup1\n  revert\ntag_1:\n  pop\n  dataSize(sub_0)\n  dup1\n  dataOffset(sub_0)\n  0x00\n  codecopy\n  0x00\n  return\nstop\n\nsub_0: assembly {\n        /* \"contracts/Handle.sol\":122:458  contract Handle{... */\n      mstore(0x40, 0x80)\n      callvalue\n      dup1\n      iszero\n      tag_1\n      jumpi\n      0x00\n      dup1\n      revert\n    tag_1:\n      pop\n      jumpi(tag_2, lt(calldatasize, 0x04))\n      shr(0xe0, calldataload(0x00))\n      dup1\n      0x0dbe671f\n      eq\n      tag_3\n      jumpi\n      dup1\n      0xc2985578\n      eq\n      tag_4\n      jumpi\n    tag_2:\n      0x00\n      dup1\n      revert\n        /* \"contracts/Handle.sol\":144:162  uint public a = 10 */\n    tag_3:\n      tag_5\n      tag_6\n      jump\t// in\n    tag_5:\n      mload(0x40)\n      tag_7\n      swap2\n      swap1\n      tag_8\n      jump\t// in\n    tag_7:\n      mload(0x40)\n      dup1\n      swap2\n      sub\n      swap1\n      return\n        /* \"contracts/Handle.sol\":171:331  function foo() public {... */\n    tag_4:\n      tag_9\n      tag_10\n      jump\t// in\n    tag_9:\n      stop\n        /* \"contracts/Handle.sol\":144:162  uint public a = 10 */\n    tag_6:\n      sload(0x00)\n      dup2\n      jump\t// out\n        /* \"contracts/Handle.sol\":171:331  function foo() public {... */\n    tag_10:\n        /* \"contracts/Handle.sol\":208:209  5 */\n      0x05\n        /* \"contracts/Handle.sol\":204:205  a */\n      0x00\n        /* \"contracts/Handle.sol\":204:209  a = 5 */\n      dup2\n      swap1\n      sstore\n      pop\n        /* \"contracts/Handle.sol\":234:235  8 */\n      0x08\n        /* \"contracts/Handle.sol\":229:230  a */\n      sload(0x00)\n        /* \"contracts/Handle.sol\":229:235  a == 8 */\n      eq\n        /* \"contracts/Handle.sol\":220:255  require (a == 8 , \"a need to be 8\") */\n      tag_12\n      jumpi\n      mload(0x40)\n      0x08c379a000000000000000000000000000000000000000000000000000000000\n      dup2\n      mstore\n      0x04\n      add\n      tag_13\n      swap1\n      tag_14\n      jump\t// in\n    tag_13:\n      mload(0x40)\n      dup1\n      swap2\n      sub\n      swap1\n      revert\n    tag_12:\n        /* \"contracts/Handle.sol\":171:331  function foo() public {... */\n      jump\t// out\n        /* \"#utility.yul\":7:84   */\n    tag_15:\n        /* \"#utility.yul\":44:51   */\n      0x00\n        /* \"#utility.yul\":73:78   */\n      dup2\n        /* \"#utility.yul\":62:78   */\n      swap1\n      pop\n        /* \"#utility.yul\":7:84   */\n      swap2\n      swap1\n      pop\n      jump\t// out\n        /* \"#utility.yul\":90:208   */\n    tag_16:\n        /* \"#utility.yul\":177:201   */\n      tag_23\n        /* \"#utility.yul\":195:200   */\n      dup2\n        /* \"#utility.yul\":177:201   */\n      tag_15\n      jump\t// in\n    tag_23:\n        /* \"#utility.yul\":172:175   */\n      dup3\n        /* \"#utility.yul\":165:202   */\n      mstore\n        /* \"#utility.yul\":90:208   */\n      pop\n      pop\n      jump\t// out\n        /* \"#utility.yul\":214:436   */\n    tag_8:\n        /* \"#utility.yul\":307:311   */\n      0x00\n        /* \"#utility.yul\":345:347   */\n      0x20\n        /* \"#utility.yul\":334:343   */\n      dup3\n        /* \"#utility.yul\":330:348   */\n      add\n        /* \"#utility.yul\":322:348   */\n      swap1\n      pop\n        /* \"#utility.yul\":358:429   */\n      tag_25\n        /* \"#utility.yul\":426:427   */\n      0x00\n        /* \"#utility.yul\":415:424   */\n      dup4\n        /* \"#utility.yul\":411:428   */\n      add\n        /* \"#utility.yul\":402:408   */\n      dup5\n        /* \"#utility.yul\":358:429   */\n      tag_16\n      jump\t// in\n    tag_25:\n        /* \"#utility.yul\":214:436   */\n      swap3\n      swap2\n      pop\n      pop\n      jump\t// out\n        /* \"#utility.yul\":442:611   */\n    tag_17:\n        /* \"#utility.yul\":526:537   */\n      0x00\n        /* \"#utility.yul\":560:566   */\n      dup3\n        /* \"#utility.yul\":555:558   */\n      dup3\n        /* \"#utility.yul\":548:567   */\n      mstore\n        /* \"#utility.yul\":600:604   */\n      0x20\n        /* \"#utility.yul\":595:598   */\n      dup3\n        /* \"#utility.yul\":591:605   */\n      add\n        /* \"#utility.yul\":576:605   */\n      swap1\n      pop\n        /* \"#utility.yul\":442:611   */\n      swap3\n      swap2\n      pop\n      pop\n      jump\t// out\n        /* \"#utility.yul\":617:781   */\n    tag_18:\n        /* \"#utility.yul\":757:773   */\n      0x61206e65656420746f2062652038000000000000000000000000000000000000\n        /* \"#utility.yul\":753:754   */\n      0x00\n        /* \"#utility.yul\":745:751   */\n      dup3\n        /* \"#utility.yul\":741:755   */\n      add\n        /* \"#utility.yul\":734:774   */\n      mstore\n        /* \"#utility.yul\":617:781   */\n      pop\n      jump\t// out\n        /* \"#utility.yul\":787:1153   */\n    tag_19:\n        /* \"#utility.yul\":929:932   */\n      0x00\n        /* \"#utility.yul\":950:1017   */\n      tag_29\n        /* \"#utility.yul\":1014:1016   */\n      0x0e\n        /* \"#utility.yul\":1009:1012   */\n      dup4\n        /* \"#utility.yul\":950:1017   */\n      tag_17\n      jump\t// in\n    tag_29:\n        /* \"#utility.yul\":943:1017   */\n      swap2\n      pop\n        /* \"#utility.yul\":1026:1119   */\n      tag_30\n        /* \"#utility.yul\":1115:1118   */\n      dup3\n        /* \"#utility.yul\":1026:1119   */\n      tag_18\n      jump\t// in\n    tag_30:\n        /* \"#utility.yul\":1144:1146   */\n      0x20\n        /* \"#utility.yul\":1139:1142   */\n      dup3\n        /* \"#utility.yul\":1135:1147   */\n      add\n        /* \"#utility.yul\":1128:1147   */\n      swap1\n      pop\n        /* \"#utility.yul\":787:1153   */\n      swap2\n      swap1\n      pop\n      jump\t// out\n        /* \"#utility.yul\":1159:1578   */\n    tag_14:\n        /* \"#utility.yul\":1325:1329   */\n      0x00\n        /* \"#utility.yul\":1363:1365   */\n      0x20\n        /* \"#utility.yul\":1352:1361   */\n      dup3\n        /* \"#utility.yul\":1348:1366   */\n      add\n        /* \"#utility.yul\":1340:1366   */\n      swap1\n      pop\n        /* \"#utility.yul\":1412:1421   */\n      dup2\n        /* \"#utility.yul\":1406:1410   */\n      dup2\n        /* \"#utility.yul\":1402:1422   */\n      sub\n        /* \"#utility.yul\":1398:1399   */\n      0x00\n        /* \"#utility.yul\":1387:1396   */\n      dup4\n        /* \"#utility.yul\":1383:1400   */\n      add\n        /* \"#utility.yul\":1376:1423   */\n      mstore\n        /* \"#utility.yul\":1440:1571   */\n      tag_32\n        /* \"#utility.yul\":1566:1570   */\n      dup2\n        /* \"#utility.yul\":1440:1571   */\n      tag_19\n      jump\t// in\n    tag_32:\n        /* \"#utility.yul\":1432:1571   */\n      swap1\n      pop\n        /* \"#utility.yul\":1159:1578   */\n      swap2\n      swap1\n      pop\n      jump\t// out\n\n    auxdata: 0xa26469706673582212209fc8194a3eb3a8550db7e5b9d46009a3fbe5ea2a6b2383cf9fa4dd8c6492d9b064736f6c63430008100033\n}\n",
				"bytecode": {
					"linkReferences": {},
					"object": "6080604052600a60005534801561001557600080fd5b5061019f806100256000396000f3fe608060405234801561001057600080fd5b50600436106100365760003560e01c80630dbe671f1461003b578063c298557814610059575b600080fd5b610043610063565b60405161005091906100d1565b60405180910390f35b610061610069565b005b60005481565b60056000819055506008600054146100b6576040517f08c379a00000000000000000000000000000000000000000000000000000000081526004016100ad90610149565b60405180910390fd5b565b6000819050919050565b6100cb816100b8565b82525050565b60006020820190506100e660008301846100c2565b92915050565b600082825260208201905092915050565b7f61206e65656420746f2062652038000000000000000000000000000000000000600082015250565b6000610133600e836100ec565b915061013e826100fd565b602082019050919050565b6000602082019050818103600083015261016281610126565b905091905056fea26469706673582212209fc8194a3eb3a8550db7e5b9d46009a3fbe5ea2a6b2383cf9fa4dd8c6492d9b064736f6c63430008100033",
					"opcodes": "PUSH1 0x80 PUSH1 0x40 MSTORE PUSH1 0xA PUSH1 0x0 SSTORE CALLVALUE DUP1 ISZERO PUSH2 0x15 JUMPI PUSH1 0x0 DUP1 REVERT JUMPDEST POP PUSH2 0x19F DUP1 PUSH2 0x25 PUSH1 0x0 CODECOPY PUSH1 0x0 RETURN INVALID PUSH1 0x80 PUSH1 0x40 MSTORE CALLVALUE DUP1 ISZERO PUSH2 0x10 JUMPI PUSH1 0x0 DUP1 REVERT JUMPDEST POP PUSH1 0x4 CALLDATASIZE LT PUSH2 0x36 JUMPI PUSH1 0x0 CALLDATALOAD PUSH1 0xE0 SHR DUP1 PUSH4 0xDBE671F EQ PUSH2 0x3B JUMPI DUP1 PUSH4 0xC2985578 EQ PUSH2 0x59 JUMPI JUMPDEST PUSH1 0x0 DUP1 REVERT JUMPDEST PUSH2 0x43 PUSH2 0x63 JUMP JUMPDEST PUSH1 0x40 MLOAD PUSH2 0x50 SWAP2 SWAP1 PUSH2 0xD1 JUMP JUMPDEST PUSH1 0x40 MLOAD DUP1 SWAP2 SUB SWAP1 RETURN JUMPDEST PUSH2 0x61 PUSH2 0x69 JUMP JUMPDEST STOP JUMPDEST PUSH1 0x0 SLOAD DUP2 JUMP JUMPDEST PUSH1 0x5 PUSH1 0x0 DUP2 SWAP1 SSTORE POP PUSH1 0x8 PUSH1 0x0 SLOAD EQ PUSH2 0xB6 JUMPI PUSH1 0x40 MLOAD PUSH32 0x8C379A000000000000000000000000000000000000000000000000000000000 DUP2 MSTORE PUSH1 0x4 ADD PUSH2 0xAD SWAP1 PUSH2 0x149 JUMP JUMPDEST PUSH1 0x40 MLOAD DUP1 SWAP2 SUB SWAP1 REVERT JUMPDEST JUMP JUMPDEST PUSH1 0x0 DUP2 SWAP1 POP SWAP2 SWAP1 POP JUMP JUMPDEST PUSH2 0xCB DUP2 PUSH2 0xB8 JUMP JUMPDEST DUP3 MSTORE POP POP JUMP JUMPDEST PUSH1 0x0 PUSH1 0x20 DUP3 ADD SWAP1 POP PUSH2 0xE6 PUSH1 0x0 DUP4 ADD DUP5 PUSH2 0xC2 JUMP JUMPDEST SWAP3 SWAP2 POP POP JUMP JUMPDEST PUSH1 0x0 DUP3 DUP3 MSTORE PUSH1 0x20 DUP3 ADD SWAP1 POP SWAP3 SWAP2 POP POP JUMP JUMPDEST PUSH32 0x61206E65656420746F2062652038000000000000000000000000000000000000 PUSH1 0x0 DUP3 ADD MSTORE POP JUMP JUMPDEST PUSH1 0x0 PUSH2 0x133 PUSH1 0xE DUP4 PUSH2 0xEC JUMP JUMPDEST SWAP2 POP PUSH2 0x13E DUP3 PUSH2 0xFD JUMP JUMPDEST PUSH1 0x20 DUP3 ADD SWAP1 POP SWAP2 SWAP1 POP JUMP JUMPDEST PUSH1 0x0 PUSH1 0x20 DUP3 ADD SWAP1 POP DUP2 DUP2 SUB PUSH1 0x0 DUP4 ADD MSTORE PUSH2 0x162 DUP2 PUSH2 0x126 JUMP JUMPDEST SWAP1 POP SWAP2 SWAP1 POP JUMP INVALID LOG2 PUSH5 0x6970667358 0x22 SLT KECCAK256 SWAP16 0xC8 NOT 0x4A RETURNDATACOPY 0xB3 0xA8 SSTORE 0xD 0xB7 0xE5 0xB9 0xD4 PUSH1 0x9 LOG3 0xFB 0xE5 0xEA 0x2A PUSH12 0x2383CF9FA4DD8C6492D9B064 PUSH20 0x6F6C634300081000330000000000000000000000 "
				},
				"gasEstimates": {
					"creation": {
						"codeDepositCost": "83000",
						"executionCost": "22235",
						"totalCost": "105235"
					},
					"external": {
						"a()": "2407",
						"foo()": "24670"
					}
				},
				"methodIdentifiers": {
					"a()": "0dbe671f",
					"foo()": "c2985578"
				}
			},
			"storageLayout": {
				"storage": [
					{
						"astId": 4,
						"contract": "contracts/Handle.sol:Handle",
						"label": "a",
						"offset": 0,
						"slot": "0",
						"type": "t_uint256"
					}
				],
				"types": {
					"t_uint256": {
						"encoding": "inplace",
						"label": "uint256",
						"numberOfBytes": "32"
					}
				}
			},
			"userdoc": {
				"kind": "user",
				"methods": {},
				"version": 1
			}
		}
	}
}